:1000000012C019C018C017C016C015C014C013C044
:1000100012C011C010C00FC00EC00DC00CC00BC06C
:100020000AC009C008C011241FBECFE5D4E0DEBF5E
:10003000CDBF1FD052C0E4CF8FB5826A8FBD8EB5C1
:100040008B618EBD8FEF90E097BD86BD08955D9B5F
:10005000FECF8CB908955F9BFECF8CB108958AB115
:1000600088618AB980B58E6880BD83E389B910BC88
:1000700008950F931F938FEF84BB87BB15BAEFDFF3
:100080008FEF99E6A8E181509040A040E1F700C0D1
:100090000000D2DF8FEF99E6A8E181509040A040A8
:1000A000E1F700C00000D7DF8332E9F7D4DF803406
:1000B000D1F7D1DF082FCFDF182FCDDF803499F7AC
:1000C000CADF843281F70F70000F05BB812F90E0EB
:0E00D0009BBD8ABD99BD88BDE6CFF894FFCFD9
:00000001FF
