:1000000012C024C023C022C021C020C01FC01EC0F7
:100010001DC01CC01BC01AC019C018C017C016C014
:1000200015C014C013C011241FBECFE5D4E0DEBF3D
:10003000CDBF11E0A0E6B0E0ECE5FFE002C0059026
:100040000D92A63CB107D9F751D086C7D9CFCF932F
:10005000DF93FB01148244E02AE030E009C0415004
:10006000EF01C40FD11DB9010AD7805D8883CB0190
:100070000097A9F706C04150DF01A40FB11D8C9372
:1000800001C080E34423B9F7DF91CF910895282F71
:10009000392FF90103C05D9BFECF8CB98191882374
:1000A000D1F7089517B887E886B9089597B1987F72
:1000B00097B997B18770892B87B9369A349BFECF51
:1000C000349A24B135B1C9010895282F392FF90187
:1000D00009C05D9BFECF8CB98FE39CE90197F1F7D6
:1000E00000C0000081918823A1F708952F923F92CC
:1000F0004F925F926F927F928F929F92AF92BF9238
:10010000CF92DF92EF92FF920F931F93DF93CF93E3
:10011000CDB7DEB762970FB6F894DEBF0FBECDBF86
:10012000DE011696E7EBF0E087E001900D9281503A
:10013000E1F78FEF87BB8AB188618AB980B58E6895
:1001400080BD83E389B910BCADDF8FEF9BE7A2E9E7
:1001500081509040A040E1F700C0000080E690E0B0
:1001600096DF5F9BFECF8CB18334D9F7B8ECCB2EF2
:10017000D12C662477244301EE24FF24870182E0FA
:1001800095DF5C01AFE1BEE41197F1F700C000001C
:1001900081E08CDFEFE1FEE43197F1F700C0000071
:1001A000950140E050E0E20EF31E041F151FA0E091
:1001B000B0E0680E791E8A1E9B1E0894C108D10803
:1001C000C114D104E1F6A8ECAA2EB12CC12CD12C7B
:1001D000C801B701A601950166D62F87388B498BD8
:1001E0005A8B8F859889FFEB4F2EFFEF5F2E480EBD
:1001F000591E9C012F5B3F4F3E872D87C401B301E1
:10020000A601950150D669017A01EFEB6E2EEFEF52
:100210007E2E620E731E71E4272E312C220E331EA9
:100220008CE890E034DF8F8598898E010F5F1F4F37
:10023000B8010DDFC8012BDF82E990E028DFC201A1
:10024000B80105DFC80123DF89E990E020DF8D8553
:100250009E85B801FCDEC8011ADF80EA90E017DF56
:1002600083EA90E014DFC601B801F1DEC8010FDFB8
:1002700089EA90E00CDFC301B801E9DEC80107DFBD
:1002800080EB90E004DFC101B801E1DEC801FFDED0
:1002900080EA90E0FCDE18BA8FEF9CE2A1E3B1E0C7
:1002A00081509040A040B040D9F700C000000AE55E
:1002B00010E06AE5A62EB12CEE24FF24FA9482E029
:1002C000F5DE6C01AFE1BEE41197F1F700C000006C
:1002D00081E0ECDE4C01EFE1FEE43197F1F700C084
:1002E0000000C414D50490F02D853E852C153D05E5
:1002F00068F0C418D508B60180E090E063D32CEE16
:1003000031E548E35FE33BD278D05B018614970484
:1003100080F02814390468F086189708B40180E04A
:1003200090E050D32CEE31E548E35FE328D265D06E
:100330008B010634110520F00F36110520F405C09D
:100340005AEFE52E02C045EFE42E36E4A316B104C1
:1003500018F483EFE82206C09FE6A916B10410F056
:10036000ACEFEA22C501865490408932910530F401
:10037000C801865490408932910520F0053111055D
:1003800058F102C030EFE32EC801805A9040853109
:10039000910510F1C80145978431910500F1C8011C
:1003A0008C58904084319105D0F0C80189978431F0
:1003B0009105C0F0C801885790408431910590F0B4
:1003C000C801CD978A30910580F0C8018E569040C3
:1003D0008A30910550F00BC0FF24FA9408C028EC35
:1003E000F22E05C096E9F92E02C084E6F82EE886C2
:1003F000F986CE01069669DE62CFEF92FF920F93E7
:100400001F937B018C0120E030E040E05FE460D28C
:1004100087FD0FC0C801B70120E030E040E05FE495
:1004200083D181D29B01AC012050304040405048E4
:1004300005C0C801B70177D29B01AC01B901CA015F
:100440001F910F91FF90EF900895A0E0B0E0EAE2D5
:10045000F2E04FC5FC01EA018081823008F438C126
:10046000DB019C91923008F430C1843059F494300F
:1004700009F02EC1918111968C911197981709F06E
:1004800021C126C1943009F420C19230B1F48230E8
:1004900009F01EC1CA01AF0128E0DA010D90AD01DB
:1004A000DC010D92CD012150C1F7DB0111968C9139
:1004B00011979181892389830AC1823009F405C18A
:1004C000C280D380DB0112966D907C9013972481BB
:1004D0003581468157811496ED90FD900D911C91C8
:1004E0001797C601861997095C0197FF04C0AA24D3
:1004F000BB24A81AB90AB0E2AB16B1040CF061C073
:10050000181619066CF5370148010A2C04C0969498
:100510008794779467940A94D2F781E090E0A0E002
:10052000B0E00A2C04C0880F991FAA1FBB1F0A94B1
:10053000D2F70197A109B1098E219F21A023B123F0
:10054000EE24FF248701E3940097A105B10519F477
:10055000EE24FF248701E628F728082919293CC042
:100560000097D1F1CA0CDB1C39014A010A2C04C0E6
:1005700096948794779467940A94D2F781E090E0F8
:10058000A0E0B0E00A2C04C0880F991FAA1FBB1F6F
:100590000A94D2F70197A109B10982239323A423D6
:1005A000B52321E030E040E050E00097A105B1051F
:1005B00019F420E030E0A9012629372948295929D2
:1005C0000BC06C147D0424F4EE24FF24870104C0C6
:1005D000630120E030E0A9018181FB01918189174D
:1005E00009F445C0882349F0D801C701821B930B49
:1005F000A40BB50B9C01AD0104C02E193F09400BA3
:10060000510B57FD04C01982DB82CA820BC081E006
:100610008983DB82CA8250954095309521953F4F62
:100620004F4F5F4F2C833D834E835F830DC0880FF8
:10063000991FAA1FBB1F8C839D83AE83BF838A81B2
:100640009B8101979B838A838C819D81AE81BF8131
:100650009C01AD0121503040404050402F3FEFEF12
:100660003E07EFEF4E07EFE35E0708F30BC0898309
:10067000DB82CA822E0D3F1D401F511F2C833D83FC
:100680004E835F8383E088832C813D814E815F812F
:1006900057FF1DC0DA01C90181709070A070B07061
:1006A0005695479537952795822B932BA42BB52BE1
:1006B0008C839D83AE83BF838A819B8101969B83BC
:1006C0008A8305C0EEEBF0E003C0FB0101C0FE0130
:1006D000CF01CDB7DEB7EEE028C4A0E2B0E0E2E79C
:1006E000F3E00FC469837A838B839C832D833E83DD
:1006F0004F83588789E0E82EF12CEC0EFD1ECE01C9
:100700000196B701FAD28E010F5E1F4FCE010596FA
:10071000B801F3D2C701B801AE01475E5F4F95DE65
:100720001FD2A096E6E009C4A0E2B0E0E9E9F3E058
:10073000E8C369837A838B839C832D833E834F83B5
:1007400058878E01075F1F4FCE010196B801D5D2A1
:1007500091E1E92EF12CEC0EFD1ECE010596B701BC
:10076000CCD28A8991E089278A8BC801B701AE0172
:10077000475E5F4F6ADEF4D1A096E6E0DEC3A8E1F3
:10078000B0E0E4ECF3E0B9C369837A838B839C83A4
:100790002D833E834F8358878E01075F1F4FCE0105
:1007A0000196B801AAD281E1E82EF12CEC0EFD1ED3
:1007B000CE010596B701A1D29985923008F483C085
:1007C0008989823008F47BC02A853A8923272A87C1
:1007D000943011F0923021F4981709F06CC071C078
:1007E000843039F41D861E861F86188A1C861B8657
:1007F0006AC0823019F484E0898765C08B859C8546
:100800002B893C89821B930B9C878B872D853E858A
:100810004F855889ED88FE880F89188D2E153F0564
:100820004007510738F4220F331F441F551F01970B
:100830009C878B876FE170E0A12CB12CC12CA0E4C8
:10084000DA2E80E090E0DC012E153F0540075107CD
:1008500040F08A299B29AC29BD292E193F09400B5C
:10086000510BD694C794B794A794220F331F441FFB
:10087000551F6150704041F76FE7E62EF12C012DB6
:10088000112DE822F9220A231B2360E4E616F10465
:100890000105110561F487FD0AC0211531054105E7
:1008A000510529F0805C9F4FAF4FBF4F80788D87F7
:1008B0009E87AF87B88B8E01075F1F4F04C08701EB
:1008C00002C00EEB10E0C8014BD16896EAE031C3DC
:1008D000A8E1B0E0EDE6F4E014C369837A838B838A
:1008E0009C832D833E834F8358878E01075F1F4F64
:1008F000CE010196B80101D281E1E82EF12CEC0E77
:10090000FD1ECE010596B701F8D18985823038F0F9
:100910008989823020F0C801B70158D201C08FEF19
:100920006896E6E00AC3ACE0B0E0E8E9F4E0EDC2C6
:1009300069837A838B839C83CE010196BE016B5FB2
:100940007F4FDBD18D81823081F1823070F1843034
:1009500021F48E81882369F10AC02F81388537FD03
:1009600024C06E812F3131053CF0662311F120E067
:1009700030E040E050E821C08EE190E0821B930B14
:1009800029853A854B855C8504C0569547953795F2
:1009900027958A95D2F7662381F05095409530953A
:1009A00021953F4F4F4F5F4F08C020E030E0A90135
:1009B00004C02FEF3FEF4FEF5FE7B901CA012C965C
:1009C000E2E0BFC2A8E0B0E0E7EEF4E098C27B014D
:1009D0008C011A82611571058105910519F482E077
:1009E00089835EC083E089838EE1C82ED12CDC82AE
:1009F000CB82ED82FE820F831887C801B70156D0E3
:100A0000FC013197F7FF3AC0AA27BB27AE1BBF0BEB
:100A100021E030E040E050E00A2E04C0220F331FF6
:100A2000441F551F0A94D2F7215030404040504097
:100A30002E213F214023512361E070E080E090E0CF
:100A4000211531054105510519F460E070E0CB0135
:100A500004C016950795F794E794AA95D2F7E62A6D
:100A6000F72A082B192BED82FE820F8318878EE15F
:100A700090E08E1B9F0B9C838B8312C0309781F07C
:100A80000E2E04C0EE0CFF1C001F111F0A94D2F79B
:100A9000ED82FE820F831887CE1ADF0ADC82CB82BA
:100AA000CE0101965DD02896E8E045C2AF92BF9294
:100AB000CF92DF92EF92FF920F931F937B018C01F5
:100AC00080E0E81680E0F80681E0080780E018077B
:100AD00058F4EFEFEE16F1040105110509F090F45A
:100AE00080E090E0DC0117C0F0E0EF16F0E0FF06D8
:100AF000F0E00F07F1E01F0750F480E190E0A0E084
:100B0000B0E009C088E090E0A0E0B0E004C088E177
:100B100090E0A0E0B0E020E230E040E050E0281BB0
:100B2000390B4A0B5B0B5701680104C0D694C7947C
:100B3000B794A7948A95D2F7D601C5018A539F4FDF
:100B4000FC018081281B310941095109C9011F910C
:100B50000F91FF90EF90DF90CF90BF90AF900895EE
:100B6000EF92FF920F931F93CF93DF93FC012481A9
:100B700035814681578161818081823020F44061D6
:100B8000EFEFF0E0A3C0843009F49BC0823009F499
:100B900092C0211531054105510509F48FC002802D
:100BA000F381E02D8FEFE238F8070CF05AC0C2E86D
:100BB000DFEFCE1BDF0BCA31D1056CF579018A015D
:100BC0000C2E04C016950795F794E7940A94D2F773
:100BD00081E090E0A0E0B0E00C2E04C0880F991FE7
:100BE000AA1FBB1F0A94D2F70197A109B10982235A
:100BF0009323A423B52321E030E040E050E00097A8
:100C0000A105B10519F420E030E0A9012E293F2902
:100C1000402B512B03C020E030E0A901DA01C901CB
:100C20008F779070A070B07080349105A105B105E8
:100C300039F427FF09C0205C3F4F4F4F5F4F04C07E
:100C4000215C3F4F4F4F5F4FE1E0F0E0203080E00C
:100C5000380780E0480780E4580728F5E0E0F0E036
:100C600022C0E038F1056CF5E158FF4FDA01C90107
:100C70008F779070A070B07080349105A105B10598
:100C800039F427FF09C0205C3F4F4F4F5F4F04C02E
:100C9000215C3F4F4F4F5F4F57FF05C0569547951B
:100CA00037952795319687E056954795379527953F
:100CB0008A95D1F70BC0E0E0F0E005C0E0E0F0E09D
:100CC00005C0EFEFF0E020E030E0A9018E2F87951E
:100CD00088278795942F9F77679566276795E69570
:100CE000E22EA92FA82BFE2FF62B622F732F8A2F0F
:100CF0009F2FCDB7DEB7E6E020C1DC01FB012C91D0
:100D000011963C91119712968C911297482F4F771C
:100D100050E0982F991F9927991F13966C9113975C
:100D2000862F880F892B90E0661F6627661F6183D8
:100D3000009739F5211531054105510511F482E07F
:100D400029C082E89FEF9383828367E0220F331FDD
:100D5000441F551F6A95D1F783E0808309C0220F95
:100D6000331F441F551F8281938101979383828390
:100D7000203080E0380780E0480780E4580778F3A7
:100D800020C08F3F910579F42115310541055105AA
:100D900019F484E08083089544FF03C081E08083D8
:100DA00010C010820EC08F5790409383828383E0DF
:100DB000808387E0220F331F441F551F8A95D1F788
:100DC000506424833583468357830895FC01DB01F7
:100DD0009081923008F449C08C91823008F445C06B
:100DE000943051F461818430B1F511962C911197B2
:100DF00030E0261B310941C0843021F0923041F4AB
:100E00008230B1F111968C9111978823A1F12DC0F8
:100E10006181823001F111968C9111976817D9F494
:100E20002281338112968D919C911397821793079B
:100E300094F028173907BCF0248135814681578109
:100E400014968D919D910D90BC91A02D82179307C2
:100E5000A407B50718F4662341F00DC02817390719
:100E60004A075B0728F4662331F021E030E005C033
:100E700020E030E002C02FEF3FEFC9010895AA1B28
:100E8000BB1B51E107C0AA1FBB1FA617B70710F075
:100E9000A61BB70B881F991F5A95A9F780959095A7
:100EA000BC01CD010895A1E21A2EAA1BBB1BFD01B6
:100EB0000DC0AA1FBB1FEE1FFF1FA217B307E40739
:100EC000F50720F0A21BB30BE40BF50B661F771F91
:100ED000881F991F1A9469F7609570958095909571
:100EE0009B01AC01BD01CF0108952F923F924F921B
:100EF0005F926F927F928F929F92AF92BF92CF92AA
:100F0000DF92EF92FF920F931F93CF93DF93CDB7B2
:100F1000DEB7CA1BDB0B0FB6F894DEBF0FBECDBF2A
:100F200009942A88398848885F846E847D848C84FB
:100F30009B84AA84B984C884DF80EE80FD800C8104
:100F40001B81AA81B981CE0FD11D0FB6F894DEBFE7
:0C0F50000FBECDBFED010895F894FFCF57
:100F5C00526561647920666F722063616C6C6962A2
:100F6C00726174696F6E20707265737320432077A1
:100F7C0068656E2072656164790D0A007856616C43
:100F8C003D0020784D696E3D0020784D61783D0024
:100F9C000D0A007956616C3D0020794D696E3D005B
:100FAC0020794D61783D0023407878402400000082
:100FBC00000000000000000102020303030304040C
:100FCC0004040404040405050505050505050505CB
:100FDC0005050505050506060606060606060606AB
:100FEC000606060606060606060606060606060695
:100FFC00060606060606070707070707070707077B
:10100C000707070707070707070707070707070764
:10101C000707070707070707070707070707070754
:10102C000707070707070707070707070707070744
:10103C00070707070707080808080808080808082A
:10104C000808080808080808080808080808080814
:10105C000808080808080808080808080808080804
:10106C0008080808080808080808080808080808F4
:10107C0008080808080808080808080808080808E4
:10108C0008080808080808080808080808080808D4
:10109C0008080808080808080808080808080808C4
:1010AC0008080808080808080808080808080808B4
:0610BC00080808080808FE
:00000001FF
